:1000000028288F018E00FF308E07031C8F07031CEA
:10001000232803308D00DF300F2003288D01E83EB8
:100020008C008D09FC30031C18288C070318152838
:100030008C0764008D0F15280C181E288C1C222894
:1000400000002228080083130313831264000800B1
:1000500083168501860183128501860101308500A2
:100060008601643001200230850086016430012061
:100070000430850086016430012008308500860147
:100080006430012085010130860064300120850143
:10009000023086006430012085010430860064301F
:1000A0000120850108308600643001208501103070
:1000B00086006430012085012030860064300120F4
:1000C0008501403086006430012085018030860043
:1000D000C830012085014030860064300120850150
:1000E00020308600643001208501103086006430A5
:1000F000012085010830860064300120850104302C
:1001000086006430012085010230860064300120C1
:1001100085010130860064300120083085008601A9
:1001200064300120043085008601643001200230F3
:10013000850086016430012001308500860164302D
:1001400001200130850080308600643001200230BB
:100150008500403086006430012004308500203066
:10016000860064300120083085001030860064303D
:1001700001208501093086006430012085010630A8
:10018000860064300120850109308600643001203A
:10019000083085001030860064300120043085006E
:1001A0002030860064300120023085004030860017
:1001B00064300120013085008030860064300120E9
:1001C0000230850040308600643001200430850014
:1001D0002030860064300120083085001030860011
:1001E00064300120850109308600643001208501DA
:1001F00006308600643001208501093086006430B5
:100200000120083085001030860064300120043061
:1002100085002030860064300120023085004030A7
:100220008600643001200130850080308600C830AF
:1002300001200530850055308600C83001200A3085
:100240008500AA308600C830012005308500553071
:100250008600C83001200A308500AA308600C830E8
:1002600001200530850055308600C83001200A3055
:100270008500AA308600C830012005308500553041
:100280008600C83001200A308500AA308600C830B8
:1002900001200F308500FF308600643001200E30D1
:1002A0008500FF308600643001200D308500FF306E
:1002B0008600643001200B308500FF3086006430FA
:1002C000012007308500FF308600643001200F30A8
:1002D0008500FE308600643001200F308500FD303F
:1002E0008600643001200F308500FB3086006430CA
:1002F00001200F308500F7308600643001200F3078
:100300008500EF308600643001200F308500DF303B
:100310008600643001200F308500BF3086006430D5
:1003200001200F3085007F308600C83001200F305B
:100330008500BF308600643001200F308500DF303B
:100340008600643001200F308500EF308600643075
:1003500001200F308500F7308600643001200F3017
:100360008500FB308600643001200F308500FD30B1
:100370008600643001200F308500FE308600643036
:10038000012007308500FF308600643001200B30EB
:100390008500FF308600643001200D308500FF307D
:1003A0008600643001200E308500FF308600643006
:1003B00001200F308500FF308600643001200430BA
:1003C00085009230860001308F002C3002200230F0
:1003D00085004930860001308F002C300220093022
:1003E00085002430860001308F002C30022004303C
:1003F00085009230860001308F002C3002200230C0
:10040000850049308600FA3001200930850024300B
:10041000860001308F002C3002200430850092309D
:10042000860001308F002C300220023085004930D8
:10043000860001308F002C300220093085002430E6
:10044000860001308F002C3002200430850092306D
:10045000860001308F002C300220023085004930A8
:10046000860001308F002C300220093085002430B6
:10047000860001308F002C30022085018601643017
:100480000120073085008601643001200E30850090
:100490008601643001200C30850001308600643014
:1004A000012008308500033086006430012085017A
:1004B000073086006430012085010E3086006430EC
:1004C000012085011C308600643001208501383010
:1004D0008600643001208501703086006430012080
:1004E0008501E03086006430012001308500C03095
:1004F000860064300120033085008030860064303F
:100500000120073085008601643001200E3085000F
:100510008601643001200C30850001308600643093
:1005200001200830850003308600643001208501F9
:10053000073086006430012085010E30860064306B
:10054000012085011C30860064300120850138308F
:1005500086006430012085017030860064300120FF
:100560008501E0308600643001208501C0308600BE
:1005700064300120850180308600643001208501CF
:10058000860101308F009030022001308500860105
:1005900001308F00903002200130850080308600CD
:1005A00001308F00903002200330850080308600BB
:1005B00001308F009030022003308500C03086006B
:1005C00001308F009030022007308500C030860057
:1005D00001308F009030022007308500E030860027
:1005E00001308F00903002200F308500E03086000F
:1005F00001308F00903002200F308500F0308600EF
:1006000001308F00903002200F308500F1308600DD
:1006100001308F00903002200F308500F9308600C5
:1006200001308F00903002200F308500FB308600B3
:1006300001308F00903002200F308500FF3086009F
:1006400001308F009030022085018601FA300120B0
:100650000F308500FF30860064300120850186015F
:10066000643001200F308500FF30860032300120D9
:1006700085018601323001200F308500FF30860071
:100680001930012085018601193001200F308500C5
:10069000FF308600193001208501860119300120C4
:1006A0000F308500FF3086000A3001208501860169
:0A06B000643001202E2863005B2B4C
:02400E00FD3F74
:00000001FF
