:02000000942842
:1001280091018301BD28051AA4280730110203187C
:100138009F28910AA0289101051EA0289001900AE5
:10014800100808000D080C04031908008E018F011F
:100158008E0A03198F0A00300F02103003190E029D
:10016800031CAC2801308C020030031C8D038D0267
:10017800A628103083168500831285018316860110
:10018800831286018D2997200038031DD928043051
:1001980085002C308C0001308D00A62008308500A9
:1001A8002C308C0001308D00A62097200038031DCC
:1001B800F3288501013086002C308C0001308D0039
:1001C800A620023086002C308C0001308D00A6203D
:1001D800083086002C308C0001308D00A620972036
:1001E8000038031D0C29043086002C308C000130A7
:1001F8008D00A620103086002C308C0001308D0038
:10020800A620203086002C308C0001308D00A620DE
:1002180097200038031D2629403086002C308C009A
:1002280001308D00A620803086002C308C000130F3
:100238008D00A6200230850086012C308C0001300C
:100248008D00A62097200038031D41290130850024
:100258002C308C0001308D00A620023085008601EC
:100268002C308C0001308D00A6208501803086005E
:100278002C308C0001308D00A62097200038031DFB
:100288005A29403086002C308C0001308D00A62081
:10029800203086002C308C0001308D00A6201030D4
:1002A80086002C308C0001308D00A6209720003865
:1002B800031D7329043086002C308C0001308D001A
:1002C800A620083086002C308C0001308D00A62036
:1002D8000230860058308C0002308D00A62097200E
:1002E8000038031D8D29013086002C308C00013028
:1002F8008D00A6200830850086012C308C00013046
:100308008D00A620043085002C308C0001308D0033
:10031800A620900191080319C728110BEF299720EF
:100328000038031DAF2905308500860190308C0008
:1003380001308D00A6200A308500860190308C009F
:1003480001308D00A62085018130860090308C0018
:1003580001308D00A62097200038031DC82942309F
:10036800860090308C0001308D00A6202830860051
:1003780090308C0001308D00A6201430860020308B
:100388008C0003308D00A62097200038031DE1293A
:100398002830860090308C0001308D00A620423035
:1003A800860090308C0001308D00A62081308600B8
:1003B80090308C0001308D00A62097200038031D56
:1003C8008D290A308500860190308C0001308D001F
:1003D800A6200530D32A1108023A031D0C2A9720BB
:1003E8000038031D002A0630850059308600E830A1
:1003F8008C0003308D00A62097200038031D8D291E
:1004080009308500A6308600E8308C0003308B293F
:100418001108033A031DD62A97200038031D2D2AF8
:100428000B308500FF30860090308C0001308D0045
:10043800A6200730850090308C0001308D00A62062
:100448000F308500FE30860090308C0001308D0022
:10045800A62097200038031D462AFD3086009030DC
:100468008C0001308D00A620F730860090308C007B
:1004780001308D00A620FB30860090308C000130C2
:100488008D00A62097200038031D5F2AEF308600D4
:1004980090308C0001308D00A620DF30860090302F
:1004A8008C0001308D00A620BF30860090308C0073
:1004B80001308D00A62097200038031D7A2A7F304E
:1004C800860090308C0001308D00A6200D3085000C
:1004D800FF30860090308C0001308D00A6200E3051
:1004E800850090308C0001308D00A62097200038C0
:1004F800031D972A0D308500FF30860090308C0050
:1005080001308D00A620FF3085007F3086009030B6
:100518008C0001308D00A620BF30860090308C0002
:1005280001308D00A62097200038031DB02ADF3047
:10053800860090308C0001308D00A620EF308600B8
:1005480090308C0001308D00A620FB308600903062
:100558008C0001308D00A62097200038031D8D29BE
:10056800F730860090308C0001308D00A620FD30D9
:10057800860020308C0003308D00A620FE308600D7
:1005880090308C0001308D00A62007308500FF30A8
:10059800860090308C0001308D00A6200B3085003D
:1005A800903089291108043A031DFC2A9720003845
:1005B800031DE72A0430850092308600E8308C005D
:1005C80003308D00A62097200038031DF42A0A3036
:1005D800850028308600E8308C0003308D00A62086
:1005E80097200038031D8D29013085004530072AE2
:1005F8001108053A031D7A2B97200038031D0D2B8F
:100608000C30850001308600E8308C0003308D0006
:10061800A62097200038031D1A2B083085000330C8
:100628008600E8308C0003308D00A6209720003823
:10063800031D262B85010B308600E8308C00033023
:100648008D00A62097200038031D382B0E30860019
:10065800E8308C0003308D00A6201C308600E8307E
:100668008C0003308D00A62097200038031D4A2BEC
:1006780034308600E8308C0003308D00A6207030BE
:100688008600E8308C0003308D00A62097200038C3
:10069800031D5E2BE0308600E8308C0003308D00AF
:1006A800A62002308500C0308600E8308C00033078
:1006B8008D00A62097200038031D732B033085007A
:1006C80080308600E8308C0003308D00A62007308B
:1006D80085008601E8308C0003308D00A620972025
:1006E8000038031D8D290D308500082A1108063AA7
:1006F800031DE92B97200038031D8A2B0430850041
:100708008601E8308C0003308D00A6209720003841
:10071800031D9C2B05308500E8308C0003308D00CC
:10072800A6200D308500E8308C0003308D00A6200F
:1007380097200038031DAE2B0F308500E8308C0061
:1007480003308D00A62001308600E8308C0003308D
:100758008D00A62097200038031DC02B813086000D
:10076800E8308C0003308D00A62083308600E83006
:100778008C0003308D00A62097200038031DD22B53
:10078800C3308600E8308C0003308D00A620CB30C3
:100798008600E8308C0003308D00A62097200038B2
:1007A800031DE42BEB308600E8308C0003308D000D
:1007B800A620EF308600E8308C0003308D00A6209C
:1007C80097200038031D8D29FE2B1108073A031DB9
:1007D8008D2997200038031DF82B85018601E83004
:1007E8008C0003308D00A62097200038031D8D292A
:0807F8000F308500FF30072AD5
:02400E00F91F98
:00000001FF
